:100000000C9475010C949D010C949D010C949D0120
:100010000C949D010C949D010C949D010C949D01E8
:100020000C949D010C949D010C946F070C94F607A1
:100030000C949D010C949D010C949D010C949D01C8
:100040000C949D010C949D010C949D010C949D01B8
:100050000C949D010C949D010C949D010C94E00165
:100060000C949D010C949D010C949D010C949D0198
:100070000C949D010C949D010C949D010C949D0188
:100080000C9412030C949D010C949D010C949D0101
:100090000C949D010C949D010C949D010C949D0168
:1000A0000C949D010C949D010C949D010304030983
:1000B000042203410072006400750069006E006F45
:1000C0000020004C0065006F006E0061007200644B
:1000D000006F001803410072006400750069006E33
:1000E000006F0020004C004C004300120100020091
:1000F000000040412336800001010200011201008E
:10010000020200004041233680000101020001008C
:10011000C18081C100000000240027002A002D00BA
:10012000300000000000250028002B002E003100C8
:10013000000000002300260029002C002F000404EA
:100140000404040304050202020204030202020280
:10015000060606060606040402020204040802015A
:100160001040804010204080408008020401804000
:100170002010020110801020404000000002000802
:100180000E0000030401000B00000000000000004E
:100190000000000000000000070605040100080A36
:1001A0000B0C0D09080B00020202010009040000FB
:1001B00001020200000524001001052401010104D0
:1001C00024020605240600010705810310004009EA
:1001D000040100020A0000000705020240000007B7
:1001E00005830240000005010902A1010901A100E7
:1001F00085010509190129031500250195037501DC
:10020000810295017505810305010930093109381D
:100210001581257F750895038106C0C00501090673
:10022000A1018502050719E029E7150025017501DF
:1002300095088102950175088103950675081500DA
:1002400025650507190029658100C0090402000120
:100250000300000009210101000122650007058457
:100260000340000100000000000000002A2B2800CD
:10027000000000000000000000000000000000007E
:10028000000000002C9EB4A0A1A2A434A6A7A5AE95
:10029000362D3738271E1F20212223242526B3334D
:1002A000B62EB7B89F8485868788898A8B8C8D8E79
:1002B0008F909192939495969798999A9B9C9D2F45
:1002C0003130A3AD350405060708090A0B0C0D0EE5
:1002D0000F101112131415161718191A1B1C1DAF25
:1002E000B1B0B500AB06490A4E0B11241FBECFEFCB
:1002F000DAE0DEBFCDBF11E0A0E0B1E0ECE5FCE16B
:1003000002C005900D92AC34B107D9F711E0ACE40E
:10031000B1E001C01D92A93DB107E1F712E0CAEEBC
:10032000D2E004C02297FE010E94280EC43ED107ED
:10033000C9F70E94D7020C942C0E0C94000008956B
:10034000EF92FF920F931F93CF93DF93C0E0D0E023
:10035000FE01E05FFE4F6081718188EE93E00E94B4
:10036000C20D7B01FE01E050FF4F608171810027CB
:10037000F7FC0095102F88E0A80197010E948E03DA
:10038000C801B7010E94B40C26E636E646EA5FE3F0
:100390000E94400D0E94810C882777FD8095982F40
:1003A0000E94280288E00E9477032296C031D1057E
:1003B00079F6DF91CF911F910F91FF90EF90089503
:1003C0001F920F920FB60F9211242F933F938F938A
:1003D0009F93AF93BF938091500190915101A09151
:1003E0005201B0915301309154010196A11DB11DEC
:1003F000232F2D5F2D3720F02D570196A11DB11D04
:10040000209354018093500190935101A093520185
:10041000B093530180914C0190914D01A0914E01F8
:10042000B0914F010196A11DB11D80934C01909395
:100430004D01A0934E01B0934F01BF91AF919F9199
:100440008F913F912F910F900FBE0F901F90189595
:100450009B01AC017FB7F89480914C0190914D01C4
:10046000A0914E01B0914F0166B5A89B05C06F3FAA
:1004700019F00196A11DB11D7FBFBA2FA92F982F8A
:100480008827860F911DA11DB11D62E0880F991F5D
:10049000AA1FBB1F6A95D1F7BC012DC0FFB7F89406
:1004A00080914C0190914D01A0914E01B0914F016E
:1004B000E6B5A89B05C0EF3F19F00196A11DB11D3F
:1004C000FFBFBA2FA92F982F88278E0F911DA11D2E
:1004D000B11DE2E0880F991FAA1FBB1FEA95D1F753
:1004E000861B970B885E9340C8F2215030404040F5
:1004F000504068517C4F211531054105510571F679
:100500000895789484B5826084BD84B5816084BD8B
:1005100085B5826085BD85B5816085BDEEE6F0E07C
:10052000808181608083E1E8F0E0108280818260D8
:100530008083808181608083E0E8F0E08081816059
:100540008083E1E9F0E08081826080838081816046
:100550008083E0E9F0E0808181608083E1ECF0E07D
:1005600080818460808380818260808380818160DB
:100570008083E3ECF0E0808181608083E0ECF0E058
:10058000808182608083E2ECF0E080818160808302
:10059000EAE7F0E0808184608083808182608083EC
:1005A0008081816080838081806880830895CF937B
:1005B000DF930E94810289E791E00E94AC060E94CD
:1005C000A001C0E0D0E00E949F012097E1F30E94CB
:1005D0000000F9CF8230B9F0833028F4882351F03D
:1005E0008130F9F40AC08430B9F0843090F085305D
:1005F000C1F415C010926E00089580916F008D7F38
:1006000080936F000895809170008D7F80937000BB
:10061000089510927100089510927200089510923A
:10062000730008951F920F920FB60F9211242F930B
:100630003F934F935F936F937F938F939F93AF936A
:10064000BF93EF93FF938091630190916401A09118
:100650006501B09166010097A105B10551F1E091E6
:100660006701F091680180819091690189278083F9
:100670008091630190916401A0916501B091660140
:10068000181619061A061B060CF580916301909145
:100690006401A0916501B09166010197A109B109BA
:1006A0008093630190936401A0936501B093660108
:1006B0000DC083E00E94EA02E0916701F0916801B9
:1006C000908180916901809589238083FF91EF91CA
:1006D000BF91AF919F918F917F916F915F914F915A
:1006E0003F912F910F900FBE0F901F9018951F9361
:1006F000182F80912001811711F09FEF06C0ECEABE
:10070000F0E094918FEF80932001892F0E94EA02FC
:10071000812F60E00E94CC091F9108952F923F9293
:100720005F926F927F928F929F92AF92BF92CF9281
:10073000DF92EF92FF920F931F93DF93CF9300D03E
:1007400000D0CDB7DEB7A82F1B0129833A834B8396
:100750005C83809120018A1721F4ECEAF0E0549048
:10076000AFC08F3F09F02EC2A0932001ECEAF0E069
:1007700054902FEF521609F425C281E0581671F1FA
:1007800085151CF0552051F09BC093E0591609F4D3
:100790004BC0B4E05B1609F093C06CC014BC15BC30
:1007A00084B5826084BD85B5816085BD2A2F30E027
:1007B000F901E25CFE4FE491F0E0EE0FFF1FEE5D09
:1007C000FE4F8591949190935A0180935901245A38
:1007D0003E4FF901849180935B0174C010928000B8
:1007E00010928100809181008860809381008091C7
:1007F00081008160809381002A2F30E0F901E25C62
:10080000FE4FE491F0E0EE0FFF1FEE5DFE4F85918D
:1008100094919093610180936001245A3E4FF901B5
:100820008491809362014EC01092900010929100CA
:100830008091910088608093910080919100816007
:10084000809391002A2F30E0F901E25CFE4FE491A1
:10085000F0E0EE0FFF1FEE5DFE4F859194919093B7
:10086000680180936701245A3E4FF9018491809377
:10087000690128C01092C0001092C1008091C1008F
:1008800088608093C1008091C10081608093C10025
:100890002A2F30E0F901E25CFE4FE491F0E0EE0F28
:1008A000FF1FEE5DFE4F8591949190936F018093B1
:1008B0006E01245A3E4FF90184918093700102C069
:1008C00057FC80C18A2F61E00E943F09552021F02A
:1008D000F2E05F1609F0BAC031018824992460E083
:1008E00072E18AE790E0A40193010E94F70D59019B
:1008F0006A01860175010894E108F10801091109EE
:100900002FEFE216F1040105110509F008F498C073
:1009100060E472E48FE090E0A40193010E94F70D7F
:1009200079018A010894E108F1080109110982E0BE
:100930005816C1F49FEFE916F1040105110509F0FD
:1009400008F4CEC060E970ED83E090E0A40193016B
:100950000E94F70D79018A010894E108F108010964
:10096000110983E0AFEFEA16F1040105110509F062
:1009700008F467C068E478EE81E090E0A401930198
:100980000E94F70D79018A010894E108F108010934
:100990001109552011F483E01DC0B2E05B1611F07F
:1009A00084E018C0EFEFEE16F1040105110509F01F
:1009B00008F496C064E274EF80E090E0A401930133
:1009C0000E94F70D79018A010894E108F1080109F4
:1009D000110985E0FFEFEF16F1040105110589F11A
:1009E00080F162E17AE780E090E0A40193010E9447
:1009F000F70D79018A010894E108F108010911094C
:100A0000552011F086E001C084E02FEFE216F104DA
:100A100001051105B1F0A8F0C601B50120E034E0F0
:100A200040E050E00E94F70D79018A010894E10846
:100A3000F10801091109552009F052C085E004C0F0
:100A400081E0552009F04CC085BD4AC05101CC243D
:100A5000DD2460E072E18AE790E0A60195010E9442
:100A6000F70D79018A010894E108F10801091109DB
:100A700080E0E81680E0F80681E0080780E01807CB
:100A800010F491E010C068E478EE81E090E0A601F7
:100A900095010E94F70D79018A010894E108F10897
:100AA0000109110993E0A1E05A1639F480918100FF
:100AB000887F982B9093810013C0B3E05B1639F4C4
:100AC00080919100887F982B9093910009C0E4E079
:100AD0005E1631F48091C100887F982B9093C100FD
:100AE00089819A81AB81BC810097A105B10529F468
:100AF0008FEF9FEFAFEFBFEF13C0220C331CB1019C
:100B000080E090E029813A814B815C810E94A30DB5
:100B100028EE33E040E050E00E94D50DC901DA0133
:100B2000E1E05E16E1F0E5151CF0552049F04AC001
:100B3000F3E05F1631F124E0521609F043C033C0F0
:100B4000E7BC8093550190935601A0935701B09351
:100B5000580180916E00826080936E0033C0F092E5
:100B60008900E092880080935C0190935D01A093DE
:100B70005E01B0935F0180916F00826080936F008F
:100B800021C0F0929900E0929800809363019093C5
:100B90006401A0936501B093660180917100826049
:100BA000809371000FC0E092CF0080936A01909310
:100BB0006B01A0936C01B0936D0180917200806411
:100BC000809372000F900F900F900F90CF91DF9154
:100BD0001F910F91FF90EF90DF90CF90BF90AF905B
:100BE0009F908F907F906F905F903F902F9008958F
:100BF000282F809173018823C1F057FF1AC015C0B8
:100C00002898909372018091F1008193E217F30785
:100C1000B9F74115510539F08091F200882319F494
:100C20008BE68093E800AFBF02C04FEF5FEFCA01D1
:100C30000895AFB7F89427702093E9008091F200EF
:100C4000282F30E0241735070CF4A901FB019B0184
:100C5000240F311D94E6DACFDF93CF930F92CDB7F7
:100C6000DEB7BE016F5F7F4F41E050E00E94F805A4
:100C7000019719F02FEF3FEF03C08981282F30E053
:100C8000C9010F90CF91DF910895FF920F931F93A9
:100C9000F82E142F052F4091760150917701212FC6
:100CA000302FC901DC01FB016EEF29C0F7FE02C045
:100CB000949101C0908120917401309175012417A5
:100CC0003507ACF48091E8008570E1F38091E8008D
:100CD00082FF03C02FEF3FEF17C09093F100C901CF
:100CE00001968F739070892B11F46093E8002F5F49
:100CF0003F4F3093750120937401119731961097EF
:100D0000A9F6812F902F9C01C9011F910F91FF908F
:100D100008959C018091E80082FFFCCFF901260F25
:100D2000311D03C08091F1008193E217F307D1F7E1
:100D3000289884E6809372018BEF8093E800CB01C2
:100D400008958093E9008091F200882319F08AE3E6
:100D50008093E800089508951092730181E08093D4
:100D6000D70080EA8093D80082E189BD09B400FEF3
:100D7000FDCF61E070E080E090E00E94280280E911
:100D80008093D8008CE08093E2001092E000559AA6
:100D9000209A08955F926F927F928F929F92AF9266
:100DA000BF92CF92DF92EF92FF920F931F93CF9358
:100DB000DF93E82E842E752E80917301882371F1C4
:100DC0008B01242F352FC901EC017AEFF72E67E054
:100DD000962E9E2050E4552E8E2D90E040E2A42EBB
:100DE000B12CA822B9223AE3632E20E4C22ED12CE2
:100DF000C822D92258C09FB7F8949092E9008091F8
:100E0000E80085FD02C020E004C08091F200252D9D
:100E1000281B9FBF222361F4FA9419F42FEF3FEFB0
:100E20004DC061E070E080E090E00E9428023BC08D
:100E3000822F90E0C817D9070CF42C2FC21BD109C0
:100E40004FB7F8949092E900A114B10421F406C0C0
:100E50001092F10021502223D9F719C0E7FC03C0FA
:100E6000F801922F10C0C801322F06C0FC01019674
:100E7000E491E093F10031503323C1F706C0819132
:100E80008093F10091509923D1F7020F111D8091A9
:100E9000E80085FF05C0209729F4C114D10411F0A2
:100EA0006092E8004FBF209709F0A5CF5D9884E6D7
:100EB00080937101282D372DC9019C01C901DF9153
:100EC000CF911F910F91FF90EF90DF90CF90BF9047
:100ED000AF909F908F907F906F905F9008951F923A
:100EE0000F920FB60F9211242F933F934F935F935E
:100EF0006F937F938F939F93AF93BF93EF93FF93E2
:100F00008091E1001092E100982F83FF0FC01092B2
:100F1000E90081E08093EB001092EC0082E3809383
:100F2000ED001092730188E08093F00092FF34C0CE
:100F300083E08093E9008091F200882319F08AE32E
:100F40008093E8008FB7F89492E09093E900909135
:100F5000F2008FBF992321F08EEB91E00E948C0A62
:100F600080917101882351F08091710181508093AB
:100F7000710180917101882309F45D9A8091720159
:100F8000882351F080917201815080937201809189
:100F90007201882309F4289AFF91EF91BF91AF91D4
:100FA0009F918F917F916F915F914F913F912F9181
:100FB0000F900FBE0F901F9018950F931F93DF9304
:100FC000CF930F92CDB7DEB719828E010F5F1F4FFF
:100FD000C8010E94B20AC8010E944B0C898190E0AE
:100FE0000F90CF91DF911F910F9108951F920F9253
:100FF0000FB60F921124EF92FF921F932F933F93FE
:101000004F935F936F937F938F939F93AF93BF9310
:10101000EF93FF93DF93CF93CDB7DEB76197DEBF3A
:10102000CDBF1092E9008091E80083FF0FC1FE015F
:1010300031969E01275F3F4F03C08091F10081935D
:10104000E217F307D1F7289884E68093720182EFC4
:101050008093E800998197FF05C08091E80080FFA8
:10106000FCCF03C08EEF8093E800292F30E0C90148
:1010700080769070892B09F0C2C08A81882329F478
:101080001092F1001092F100D6C0813009F4D3C063
:10109000833009F4D0C0853049F48091E80080FFA6
:1010A000FCCF8B8180688093E300C5C0863009F057
:1010B0007CC01C81EF80F8841230C1F51092E900E9
:1010C00010927501109274011092770110927601BE
:1010D0000E94DD0799E0FE013996DF01292F1D925C
:1010E0002A95E9F799871A8791E09E8790E8988B6F
:1010F0009AEF998B2091740130917501275F3F4FD2
:101100003C872B878D871092E90010927501109211
:101110007401F0927701E092760180E0BF0149E02E
:1011200050E00E9445060E94DD0785C01092E9004C
:101130001092750110927401F0927701E09276019D
:10114000123241F482E290E00E94430C892B09F4B0
:1011500076C071C0113079F488E0E816F10419F412
:1011600081E08093780180917801882309F06BC039
:10117000EBEEF0E013C0133009F061C08B818823DF
:1011800019F4EDEAF0E00AC0823019F4E1EBF0E086
:1011900005C0813009F053C0E3EDF0E0449180E8F0
:1011A000BF0150E00E94450646C0873009F447C0A1
:1011B000883021F481E08093F1003DC08930D9F579
:1011C00023703070232BD9F5E0E1F1E091E031E0BC
:1011D00026E39093E9003093EB0084918093EC0038
:1011E0002093ED009F5F3196953099F78EE78093BD
:1011F000EA001092EA008B81809373011CC08F81FA
:1012000098851092E90010927501109274019093E4
:101210007701809376018D81882329F4CE01019690
:101220000E94BE0A06C0823051F4CE0101960E948F
:10123000140B882321F08EEF8093E80007C081E231
:101240008093EB0003C0EDEFF0E0A8CF6196DEBF26
:10125000CDBFCF91DF91FF91EF91BF91AF919F9162
:101260008F917F916F915F914F913F912F911F913E
:10127000FF90EF900F900FBE0F901F901895CF9397
:10128000DF93482F50E0CA01845A9E4FFC013491ED
:10129000425C5E4FFA018491882369F190E0880FE7
:1012A000991FFC01EC5EFE4FA591B491FC01EE5D2F
:1012B000FE4FC591D491662351F42FB7F8948C91C9
:1012C000932F909589238C93888189230BC062305A
:1012D00061F42FB7F8948C91932F909589238C9378
:1012E0008881832B88832FBF06C09FB7F8948C9189
:1012F000832B8C939FBFDF91CF910895883071F13C
:10130000893068F4823031F1833020F4813009F083
:1013100042C01DC0833089F08430E9F512C08B30A3
:1013200059F18C3028F48930E9F08A30A1F51EC0DB
:101330008C3031F18E3079F529C0809180008F7723
:1013400003C0809180008F7D80938000089584B5D4
:101350008F7702C084B58F7D84BD08958091900001
:101360008F7707C0809190008F7D03C0809190009F
:10137000877F8093900008958091C0008F7703C08D
:101380008091C0008F7D8093C00008958091C2003D
:10139000877F8093C2000895FF920F931F93F62ECC
:1013A000482F50E0CA0186589E4FFC012491CA0183
:1013B000845A9E4FFC011491425C5E4FFA010491E5
:1013C0000023C9F0222319F0822F0E947E09E02F0A
:1013D000F0E0EE0FFF1FEE5DFE4FA591B4919FB7B9
:1013E000F894FF2021F48C911095812302C08C91F8
:1013F000812B8C939FBF1F910F91FF900895209197
:10140000BA013091BB018091BC019091BD01281BB4
:10141000390B2F733070C90108952091BA013091B2
:10142000BB018091BC019091BD012817390719F4C7
:101430002FEF3FEF09C0E091BC01F091BD01E658EC
:10144000FE4F8081282F30E0C90108952091BA0114
:101450003091BB018091BC019091BD0128173907E3
:1014600019F42FEF3FEF13C0E091BC01F091BD01E3
:10147000E658FE4F20818091BC019091BD010196FC
:101480008F7390709093BD018093BC0130E0C901CF
:1014900008951092C1011092C00188EE93E0A0E07F
:1014A000B0E08093C2019093C301A093C401B093B4
:1014B000C5018FE291E09093BF018093BE01089532
:1014C0000F931F93DF93CF930F92CDB7DEB78C01AD
:1014D000698380912801882369F083E0BE016F5FF2
:1014E0007F4F41E050E00E94CA061816190614F416
:1014F0009C0107C081E090E0F8019383828320E0A3
:1015000030E0C9010F90CF91DF911F910F910895A5
:1015100083E00E94A1060895CF93DF9312C082E07A
:101520000E942C062FEF8F3F9207C9F0E091BA017D
:10153000F091BB01E658FE4F8083D093BB01C0936E
:10154000BA01C091BA01D091BB012196CF73D0707E
:101550008091BC019091BD01C817D90701F7DF91B7
:10156000CF910895FC0180818E5F808380E864EADA
:1015700071E042E450E00E9445060895FC0181813B
:101580009081913A59F4813209F04CC080E061E2D7
:1015900071E047E050E00E94450642C0913209F0F8
:1015A00041C0803239F481E291E067E070E00E944E
:1015B000890636C0823209F035C0828180932801C5
:1015C0008091210190912201A0912301B0912401E9
:1015D000805B9440A040B04019F58091280180FDC7
:1015E00012C087E797E790930108809300082BE0EB
:1015F00088E190E00FB6F894A895809360000FBE44
:10160000209360000DC088E10FB6F89480936000CD
:10161000109260000FBEA895109201081092000869
:1016200081E0089580E00895FC0191818081813AF4
:1016300031F4913089F080E0933089F40DC081322B
:1016400069F49B3021F482818093290105C09A308E
:1016500029F4828180932A0181E0089580E0089531
:10166000EF92FF920F931F938C01E62EDC01ED9118
:10167000FC910480F581E02D0995F82ED801ED91BB
:10168000FC910680F781E02DC8016E2D09958F2D04
:1016900090E01F910F91FF90EF9008951092CC0170
:1016A0001092D0011092CF0181E491E09093CE018D
:1016B0008093CD010895EF92FF920F931F93DF93D4
:1016C000CF930F92CDB7DEB789838B017A0184E087
:1016D000BE016F5F7F4F41E050E00E94CA0684E484
:1016E000B801A7010E94CA060F90CF91DF911F9108
:1016F0000F91FF90EF90089582E048E050E00E9443
:101700005B0B0895FC0116821782108611861286E3
:10171000138614823496BF010E947C0B0895DC016D
:10172000683810F0685829C0E62FF0E067FF13C052
:10173000E058F04081E090E002C0880F991FEA95E0
:10174000E2F7809514962C911497282314962C93E5
:10175000149760E012C0EC59FD4F6491662319F4B0
:1017600020E030E01DC067FF08C014968C911497EC
:101770008D7F14968C9314976F77FD0190E066230C
:1017800021F08681861709F416829F5F3196963084
:10179000B1F7CD011496BD010E947C0B21E030E031
:1017A000C9010895CF93DF93DC01683810F06858C1
:1017B00025C0E62FF0E067FF12C0E058F04081E05E
:1017C00090E002C0880F991FEA95E2F714962C91D9
:1017D0001497282B14962C93149760E00FC0EC59A3
:1017E000FD4F64916623D9F167FF08C014968C9170
:1017F0001497826014968C9314976F7716968C9139
:1018000016978617A9F117968C911797861781F16D
:1018100018968C911897861759F119968C911997EB
:10182000861731F11A968C911A97861709F11B9633
:101830008C911B978617E1F0ED01E0E0F0E09E2F20
:101840008E81882321F4EA0FFB1F668306C09F5F09
:1018500031962196E630F10591F7963049F481E012
:1018600090E013969C938E93129720E030E007C08F
:10187000CD011496BD010E947C0B21E030E0C9012E
:10188000DF91CF91089580E866EE71E045E650E083
:101890000E9445060895FC0180818F5F808380E867
:1018A0006BE472E049E150E00E9445060895CF9252
:1018B000DF92EF92FF920F931F93CF93DF937C0100
:1018C0006B018A01C0E0D0E00FC0D6016D916D01BF
:1018D000D701ED91FC910190F081E02DC7010995B0
:1018E000C80FD91F015010400115110571F7CE0125
:1018F000DF91CF911F910F91FF90EF90DF90CF90EC
:10190000089504D06894B111B5C0089598D088F0B6
:101910009F5790F0B92F9927B751A0F0D1F0660FDB
:10192000771F881F991F1AF0BA95C9F712C0B130F6
:1019300081F09FD0B1E008959CC0672F782F882751
:10194000B85F39F0B93FCCF3869577956795B39535
:10195000D9F73EF490958095709561957F4F8F4FA4
:101960009F4F0895E89409C097FB3EF490958095A9
:10197000709561957F4F8F4F9F4F9923A9F0F92F55
:1019800096E9BB279395F695879577956795B795D3
:10199000F111F8CFFAF4BB0F11F460FF1BC06F5FB9
:1019A0007F4F8F4F9F4F16C0882311F096E911C0CB
:1019B000772321F09EE8872F762F05C0662371F0EC
:1019C00096E8862F70E060E02AF09A95660F771F00
:1019D000881FDAF7880F9695879597F9089597F9F4
:1019E0009F6780E870E060E008959FEF80EC0895C5
:1019F00000240A94161617061806090608950024EE
:101A00000A9412161306140605060895092E039467
:101A1000000C11F4882352F0BB0F40F4BF2B11F4DB
:101A200060FF04C06F5F7F4F8F4F9F4F089557FD3A
:101A30009058440F551F59F05F3F71F04795880F3C
:101A400097FB991F61F09F3F79F0879508951216D3
:101A500013061406551FF2CF4695F1DF08C016167F
:101A600017061806991FF1CF869571056105089430
:101A70000895E894BB2766277727CB0197F9089547
:101A80000BD0C4CFB5DF28F0BADF18F0952309F0EA
:101A9000A6CFABCF1124EECFCADFA0F3959FD1F331
:101AA000950F50E0551F629FF001729FBB27F00D0C
:101AB000B11D639FAA27F00DB11DAA1F649F662761
:101AC000B00DA11D661F829F2227B00DA11D621FB0
:101AD000739FB00DA11D621F839FA00D611D221F6A
:101AE000749F3327A00D611D231F849F600D211D4E
:101AF000822F762F6A2F11249F5750408AF0E1F0F1
:101B000088234AF0EE0FFF1FBB1F661F771F881F39
:101B100091505040A9F79E3F510570F060CFAACF79
:101B20005F3FECF3983EDCF3869577956795B79524
:101B3000F795E7959F5FC1F7FE2B880F911D96954E
:101B4000879597F90895629FD001739FF001829F56
:101B5000E00DF11D649FE00DF11D929FF00D839F3C
:101B6000F00D749FF00D659FF00D9927729FB00DD9
:101B7000E11DF91F639FB00DE11DF91FBD01CF01EC
:101B80001124089597FB092E07260AD077FD04D06B
:101B900049D006D000201AF4709561957F4F0895C2
:101BA000F6F7909581959F4F0895A1E21A2EAA1BF2
:101BB000BB1BFD010DC0AA1FBB1FEE1FFF1FA217FD
:101BC000B307E407F50720F0A21BB30BE40BF50BFA
:101BD000661F771F881F991F1A9469F76095709583
:101BE000809590959B01AC01BD01CF01089597FBB5
:101BF000092E05260ED057FD04D0D7DF0AD0001CD1
:101C000038F450954095309521953F4F4F4F5F4F99
:101C10000895F6F790958095709561957F4F8F4F59
:101C20009F4F0895AA1BBB1B51E107C0AA1FBB1FF2
:101C3000A617B70710F0A61BB70B881F991F5A9558
:101C4000A9F780959095BC01CD010895EE0FFF1F77
:0C1C50000590F491E02D0994F894FFCF6A
:101C5C000601C400C400DC00C4000000F70006014B
:101C6C000400080008000400040004000400040040
:101C7C00FF00E10000000000000101000000006016
:101C8C000A570CFF09260A0D0A880A8C0A00000064
:0C1C9C0000300B570CD20B8F0B820B009A
:00000001FF
