:100000000C9475010C949D010C949D010C949D0120
:100010000C949D010C949D010C949D010C949D01E8
:100020000C949D010C949D010C9451060C94D806DF
:100030000C949D010C949D010C949D010C949D01C8
:100040000C949D010C949D010C949D010C949D01B8
:100050000C949D010C949D010C949D010C94D20272
:100060000C949D010C949D010C949D010C949D0198
:100070000C949D010C949D010C949D010C949D0188
:100080000C949D010C949D010C949D010C949D0178
:100090000C949D010C949D010C949D010C949D0168
:1000A0000C949D010C949D010C949D010000000096
:1000B000240027002A002D00300000000000250049
:1000C00028002B002E003100000000002300260035
:1000D00029002C002F000404040404030405020278
:1000E00002020403020202020606060606060404D1
:1000F00002020204040802011040804010204080E7
:10010000408008020401804020100201108010206D
:1001100040400000000200080E0000030401000B34
:1001200000000000000000000000000000000000CF
:10013000070605040100080A0B0C0D090403090455
:100140002203410072006400750069006E006F00B8
:1001500020004C0065006F006E00610072006400BA
:100160006F001803410072006400750069006E00A2
:100170006F0020004C004C00430012010002000000
:1001800000404123368000010102000112010002FB
:10019000020000404123368000010102000100C13D
:1001A0008081C1080B000202020100090400000165
:1001B00002020000052400100105240101010424AD
:1001C000020605240600010705810310004009040A
:1001D0000100020A000000070502024000000705B6
:1001E000830240000005010902A1010901A1008567
:1001F00001050919012903150025019503750181E0
:100200000295017505810305010930093109381589
:1002100081257F750895038106C0C005010906A1E7
:10022000018502050719E029E715002501750195EB
:10023000088102950175088103950675081500254A
:10024000650507190029658100C009040200010342
:100250000000000921010100012265000705840357
:1002600040000100000000000000002A2B280000D0
:10027000000000000000000000000000000000007E
:100280000000002C9EB4A0A1A2A434A6A7A5AE365F
:100290002D3738271E1F20212223242526B333B6CD
:1002A0002EB7B89F8485868788898A8B8C8D8E8FA0
:1002B000909192939495969798999A9B9C9D2F31A3
:1002C00030A3AD350405060708090A0B0C0D0E0F07
:1002D000101112131415161718191A1B1C1DAFB183
:1002E000B0B500008D056B08700911241FBECFEF5B
:1002F000DAE0DEBFCDBF11E0A0E0B1E0E6E5F5E178
:1003000002C005900D92AE32B107D9F711E0AEE20E
:10031000B1E001C01D92A13BB107E1F712E0CAEEC6
:10032000D2E004C02297FE010E94A50AC43ED10774
:10033000C9F70E94C7040C94A90A0C94000080918C
:10034000360190913701009739F488E060E00E940F
:10035000640489E061E009C08230910559F488E0C5
:1003600061E00E94640489E060E00E9464048AE025
:1003700061E017C08430910539F488E061E00E94A3
:10038000640489E061E009C08330910569F488E084
:1003900061E00E94640489E060E00E9464048AE0F5
:1003A00060E00E9464040895019761F488E060E0D1
:1003B0000E94640489E060E00E9464048AE061E0D5
:1003C0000E94640408950E941A0320913C01309118
:1003D0003D0140913E0150913F0162177307840730
:1003E0009507E0F080913A0190913B01892BB1F49F
:1003F00080913601909137018230910539F484E083
:1004000090E0909337018093360106C0039721F462
:1004100010923701109236010E949F010895209199
:1004200036013091370180913A0190913B0100975C
:1004300099F42115310519F482E090E028C02230AA
:100440003105E9F02430310519F483E090E01FC054
:100450002330310531F516C0019719F52115310505
:10046000A1F02130310539F48091380190913901A2
:10047000049729F407C02430310599F406C084E0BC
:1004800090E005C080E090E002C081E090E0309311
:1004900039012093380190933701809336010E94EF
:1004A0009F010895CF93DF9382E00E949704EC01AF
:1004B0008091300190913101C817D90751F00E9405
:1004C0001A03609332017093330180933401909347
:1004D00035010E941A03209132013091330140917D
:1004E000340150913501621B730B840B950B2091E5
:1004F0000001309101014091020150910301261742
:10050000370748075907F0F480912E0190912F0189
:10051000C817D907B9F0D0932F01C0932E01C1306D
:10052000D10581F40E940F020E941A036C507E4F85
:100530008F4F9F4F60933C0170933D0180933E012C
:1005400090933F01D0933101C09330010E94E301A9
:100550006AE070E080E090E00E942803DF91CF9194
:10056000089588E061E00E94D70389E061E00E947D
:10057000D7038AE061E00E94D70382E060E00E9436
:10058000D703109237011092360110923901109260
:10059000380181E090E090933B0180933A010E9402
:1005A0009F0108951F920F920FB60F9211242F935F
:1005B0003F938F939F93AF93BF938091440190910A
:1005C0004501A0914601B091470130914801019643
:1005D000A11DB11D232F2D5F2D3720F02D57019622
:1005E000A11DB11D209348018093440190934501C2
:1005F000A0934601B0934701809140019091410141
:10060000A0914201B09143010196A11DB11D8093BB
:10061000400190934101A0934201B0934301BF91E7
:10062000AF919F918F913F912F910F900FBE0F909F
:100630001F9018958FB7F89420914401309145018F
:1006400040914601509147018FBFB901CA010895F9
:100650009B01AC017FB7F8948091400190914101DA
:10066000A0914201B091430166B5A89B05C06F3FC0
:1006700019F00196A11DB11D7FBFBA2FA92F982F88
:100680008827860F911DA11DB11D62E0880F991F5B
:10069000AA1FBB1F6A95D1F7BC012DC0FFB7F89404
:1006A0008091400190914101A0914201B09143019C
:1006B000E6B5A89B05C0EF3F19F00196A11DB11D3D
:1006C000FFBFBA2FA92F982F88278E0F911DA11D2C
:1006D000B11DE2E0880F991FAA1FBB1FEA95D1F751
:1006E000861B970B885E9340C8F2215030404040F3
:1006F000504068517C4F211531054105510571F677
:100700000895789484B5826084BD84B5816084BD89
:1007100085B5826085BD85B5816085BDEEE6F0E07A
:10072000808181608083E1E8F0E0108280818260D6
:100730008083808181608083E0E8F0E08081816057
:100740008083E1E9F0E08081826080838081816044
:100750008083E0E9F0E0808181608083E1ECF0E07B
:1007600080818460808380818260808380818160D9
:100770008083E3ECF0E0808181608083E0ECF0E056
:10078000808182608083E2ECF0E080818160808300
:10079000EAE7F0E0808184608083808182608083EA
:1007A0008081816080838081806880830895CF9379
:1007B000DF93482F50E0CA018C509F4FFC013491C9
:1007C0004A525F4FFA018491882369F190E0880FC3
:1007D000991FFC01E455FF4FA591B491FC01E6542B
:1007E000FF4FC591D491662351F42FB7F8948C91A3
:1007F000932F909589238C93888189230BC0623035
:1008000061F42FB7F8948C91932F909589238C9352
:100810008881832B88832FBF06C09FB7F8948C9163
:10082000832B8C939FBFDF91CF910895883071F116
:10083000893068F4823031F1833020F4813009F05E
:1008400042C01DC0833089F08430E9F512C08B307E
:1008500059F18C3028F48930E9F08A30A1F51EC0B6
:100860008C3031F18E3079F529C0809180008F77FE
:1008700003C0809180008F7D80938000089584B5AF
:100880008F7702C084B58F7D84BD089580919000DC
:100890008F7707C0809190008F7D03C0809190007A
:1008A000877F8093900008958091C0008F7703C068
:1008B0008091C0008F7D8093C00008958091C20018
:1008C000877F8093C2000895FF920F931F93F62EA7
:1008D000482F50E0CA018E5E9E4FFC012491CA0150
:1008E0008C509F4FFC0114914A525F4FFA010491C2
:1008F0000023C9F0222319F0822F0E941604E02F52
:10090000F0E0EE0FFF1FE654FF4FA591B4919FB7A3
:10091000F894FF2021F48C911095812302C08C91D2
:10092000812B8C939FBF1F910F91FF9008950F9380
:100930001F93482F50E0CA018E5E9E4FFC01249108
:10094000CA018C509F4FFC0104914A525F4FFA013B
:100950001491112319F420E030E015C0222319F07E
:10096000822F0E941604812F90E0880F991F8853D0
:100970009F4FFC01A591B4918C9120E030E0802341
:1009800011F021E030E0C9011F910F910895CF933C
:10099000DF930E94810381E591E00E948E050E9411
:1009A000B102C0E0D0E00E9452022097E1F30E9421
:1009B0000000F9CF282F80914B018823C1F057FF09
:1009C0001AC015C0289890934A018091F100819334
:1009D000E217F307B9F74115510539F08091F2009C
:1009E000882319F48BE68093E800AFBF02C04FEF75
:1009F0005FEFCA010895AFB7F89427702093E9001C
:100A00008091F200282F30E0241735070CF4A9015B
:100A1000FB019B01240F311D94E6DACFDF93CF93C6
:100A20000F92CDB7DEB7BE016F5F7F4F41E050E060
:100A30000E94DA04019719F02FEF3FEF03C089817C
:100A4000282F30E0C9010F90CF91DF910895FF92D8
:100A50000F931F93F82E142F052F40914E015091A4
:100A60004F01212F302FC901DC01FB016EEF29C09E
:100A7000F7FE02C0949101C0908120914C01309109
:100A80004D0124173507ACF48091E8008570E1F33F
:100A90008091E80082FF03C02FEF3FEF17C09093D3
:100AA000F100C90101968F739070892B11F4609346
:100AB000E8002F5F3F4F30934D0120934C01119779
:100AC00031961097A9F6812F902F9C01C9011F9193
:100AD0000F91FF9008959C018091E80082FFFCCF68
:100AE000F901260F311D03C08091F1008193E217B7
:100AF000F307D1F7289884E680934A018BEF80931F
:100B0000E800CB0108958093E9008091F2008823EA
:100B100019F08AE38093E8000895089510924B013C
:100B200081E08093D70080EA8093D80082E189BD7C
:100B300009B400FEFDCF61E070E080E090E00E942B
:100B4000280380E98093D8008CE08093E200109223
:100B5000E000559A209A08955F926F927F928F924B
:100B60009F92AF92BF92CF92DF92EF92FF920F933C
:100B70001F93CF93DF93E82E842E752E80914B0127
:100B8000882371F18B01242F352FC901EC017AEFF5
:100B9000F72E67E0962E9E2050E4552E8E2D90E085
:100BA00040E2A42EB12CA822B9223AE3632E20E41D
:100BB000C22ED12CC822D92258C09FB7F894909247
:100BC000E9008091E80085FD02C020E004C080912A
:100BD000F200252D281B9FBF222361F4FA9419F4FB
:100BE0002FEF3FEF4DC061E070E080E090E00E94A9
:100BF00028033BC0822F90E0C817D9070CF42C2F94
:100C0000C21BD1094FB7F8949092E900A114B10426
:100C100021F406C01092F10021502223D9F719C007
:100C2000E7FC03C0F801922F10C0C801322F06C0A4
:100C3000FC010196E491E093F10031503323C1F7B8
:100C400006C081918093F10091509923D1F7020F52
:100C5000111D8091E80085FF05C0209729F4C1147B
:100C6000D10411F06092E8004FBF209709F0A5CFA2
:100C70005D9884E680934901282D372DC9019C0198
:100C8000C901DF91CF911F910F91FF90EF90DF90FD
:100C9000CF90BF90AF909F908F907F906F905F901C
:100CA00008951F920F920FB60F9211242F933F9326
:100CB0004F935F936F937F938F939F93AF93BF9364
:100CC000EF93FF938091E1001092E100982F83FF52
:100CD0000FC01092E90081E08093EB001092EC00CD
:100CE00082E38093ED0010924B0188E08093F00046
:100CF00092FF34C083E08093E9008091F200882362
:100D000019F08AE38093E8008FB7F89492E090930B
:100D1000E9009091F2008FBF992321F086E991E0DC
:100D20000E94AE0880914901882351F080914901C9
:100D300081508093490180914901882309F45D9A8B
:100D400080914A01882351F080914A01815080931B
:100D50004A0180914A01882309F4289AFF91EF9172
:100D6000BF91AF919F918F917F916F915F914F91C3
:100D70003F912F910F900FBE0F901F9018950F93DA
:100D80001F93DF93CF930F92CDB7DEB719828E01F9
:100D90000F5F1F4FC8010E94D408C8010E946D0A4E
:100DA000898190E00F90CF91DF911F910F9108956D
:100DB0001F920F920FB60F921124EF92FF921F9382
:100DC0002F933F934F935F936F937F938F939F9353
:100DD000AF93BF93EF93FF93DF93CF93CDB7DEB77E
:100DE0006197DEBFCDBF1092E9008091E80083FFDC
:100DF0000FC1FE0131969E01275F3F4F03C08091D6
:100E0000F1008193E217F307D1F7289884E68093E5
:100E10004A0182EF8093E800998197FF05C0809195
:100E2000E80080FFFCCF03C08EEF8093E800292FFD
:100E300030E0C90180769070892B09F0C2C08A81A8
:100E4000882329F41092F1001092F100D6C081306D
:100E500009F4D3C0833009F4D0C0853049F48091BF
:100E6000E80080FFFCCF8B8180688093E300C5C0E1
:100E7000863009F07CC01C81EF80F8841230C1F507
:100E80001092E90010924D0110924C0110924F0106
:100E900010924E010E94BF0699E0FE013996DF01D3
:100EA000292F1D922A95E9F799871A8791E09E8745
:100EB00090E8988B9AEF998B20914C0130914D01DD
:100EC000275F3F4F3C872B878D871092E900109258
:100ED0004D0110924C01F0924F01E0924E0180E0E2
:100EE000BF0149E050E00E9427050E94BF0685C06F
:100EF0001092E90010924D0110924C01F0924F01B6
:100F0000E0924E01123241F482E290E00E94650AC2
:100F1000892B09F476C071C0113079F488E0E816A5
:100F2000F10419F481E080935001809150018823ED
:100F300009F06BC0EAE7F1E013C0133009F061C0BB
:100F40008B81882319F4ECE3F1E00AC0823019F4B4
:100F5000E0E4F1E005C0813009F053C0E2E6F1E0E1
:100F6000449180E8BF0150E00E94270546C08730C9
:100F700009F447C0883021F481E08093F1003DC03E
:100F80008930D9F523703070232BD9F5EFE9F1E0E2
:100F900091E031E026E39093E9003093EB008491F7
:100FA0008093EC002093ED009F5F3196953099F788
:100FB0008EE78093EA001092EA008B8180934B01C8
:100FC0001CC08F8198851092E90010924D011092FB
:100FD0004C0190934F0180934E018D81882329F419
:100FE000CE0101960E94E00806C0823051F4CE0185
:100FF00001960E943609882321F08EEF8093E80045
:1010000007C081E28093EB0003C0ECE8F1E0A8CFD9
:101010006196DEBFCDBFCF91DF91FF91EF91BF9180
:10102000AF919F918F917F916F915F914F913F9180
:101030002F911F91FF90EF900F900FBE0F901F9078
:101040001895209192013091930180919401909193
:101050009501281B390B2F733070C9010895209119
:1010600092013091930180919401909195012817FC
:10107000390719F42FEF3FEF09C0E0919401F09187
:101080009501EE5AFE4F8081282F30E0C901089566
:10109000209192013091930180919401909195015A
:1010A0002817390719F42FEF3FEF13C0E09194018F
:1010B000F0919501EE5AFE4F20818091940190911C
:1010C000950101968F739070909395018093940190
:1010D00030E0C9010895109299011092980188EEAC
:1010E00093E0A0E0B0E080939A0190939B01A093DD
:1010F0009C01B0939D0182E191E0909397018093D0
:10110000960108950F931F93DF93CF930F92CDB75E
:10111000DEB78C01698380910B01882369F083E03D
:10112000BE016F5F7F4F41E050E00E94AC05181692
:10113000190614F49C0107C081E090E0F801938344
:10114000828320E030E0C9010F90CF91DF911F91A1
:101150000F91089583E00E9483050895CF93DF9354
:1011600012C082E00E940E052FEF8F3F9207C9F058
:10117000E0919201F0919301EE5AFE4F8083D0935B
:101180009301C0939201C0919201D0919301219655
:10119000CF73D0708091940190919501C817D907B1
:1011A00001F7DF91CF910895FC0180818E5F8083EC
:1011B00080E863EA71E042E450E00E942705089568
:1011C000FC0181819081913A59F4813209F04CC03F
:1011D00080E064E071E047E050E00E94270542C0F3
:1011E000913209F041C0803239F484E091E067E047
:1011F00070E00E946B0536C0823209F035C08281F2
:1012000080930B018091040190910501A09106014A
:10121000B0910701805B9440A040B04019F58091E7
:101220000B0180FD12C087E797E790930108809338
:1012300000082BE088E190E00FB6F894A895809321
:1012400060000FBE209360000DC088E10FB6F894D7
:1012500080936000109260000FBEA8951092010864
:101260001092000881E0089580E00895FC019181CA
:101270008081813A31F4913089F080E0933089F4B3
:101280000DC0813269F49B3021F4828180930C017E
:1012900005C09A3029F4828180930D0181E0089580
:1012A00080E00895EF92FF920F931F938C01E62E3A
:1012B000DC01ED91FC910480F581E02D0995F82E7B
:1012C000D801ED91FC910680F781E02DC8016E2DCB
:1012D00009958F2D90E01F910F91FF90EF90089549
:1012E0001092A4011092A8011092A70184E291E04B
:1012F0009093A6018093A5010895EF92FF920F931A
:101300001F93DF93CF930F92CDB7DEB789838B0105
:101310007A0184E0BE016F5F7F4F41E050E00E94A0
:10132000AC0584E4B801A7010E94AC050F90CF91F1
:10133000DF911F910F91FF90EF90089582E048E0B8
:1013400050E00E947D090895FC01168217821086E4
:1013500011861286138614823496BF010E949E095C
:101360000895DC01683810F0685829C0E62FF0E0D5
:1013700067FF13C0E058F04081E090E002C0880FA2
:10138000991FEA95E2F7809514962C9114972823DB
:1013900014962C93149760E012C0ED59FD4F6491A0
:1013A000662319F420E030E01DC067FF08C01496E2
:1013B0008C9114978D7F14968C9314976F77FD0101
:1013C00090E0662321F08681861709F416829F5FDC
:1013D00031969630B1F7CD011496BD010E949E0959
:1013E00021E030E0C9010895CF93DF93DC01683834
:1013F00010F0685825C0E62FF0E067FF12C0E058F3
:10140000F04081E090E002C0880F991FEA95E2F772
:1014100014962C911497282B14962C93149760E013
:101420000FC0ED59FD4F64916623D9F167FF08C0E5
:1014300014968C911497826014968C9314976F77FE
:1014400016968C9116978617A9F117968C91179777
:10145000861781F118968C911897861759F119966D
:101460008C911997861731F11A968C911A978617D5
:1014700009F11B968C911B978617E1F0ED01E0E0D6
:10148000F0E09E2F8E81882321F4EA0FFB1F6683F4
:1014900006C09F5F31962196E630F10591F79630B0
:1014A00049F481E090E013969C938E93129720E08C
:1014B00030E007C0CD011496BD010E949E0921E0D5
:1014C00030E0C901DF91CF91089580E865EE71E0C9
:1014D00045E650E00E9427050895FC0180818F5F5A
:1014E000808380E86AE472E049E150E00E942705C9
:1014F0000895CF92DF92EF92FF920F931F93CF93B5
:10150000DF937C016B018A01C0E0D0E00FC0D601FF
:101510006D916D01D701ED91FC910190F081E02D6D
:10152000C7010995C80FD91F0150104001151105B9
:1015300071F7CE01DF91CF911F910F91FF90EF9046
:10154000DF90CF900895EE0FFF1F0590F491E02DEE
:061550000994F894FFCF9E
:101556001400000000E1000000000000010100008E
:1015660000008208790A210848082F08AA08AE0850
:0E157600000000005209790AF409B109A40925
:00000001FF
