:100000000C9475010C949D010C949D010C949D0120
:100010000C949D010C949D010C949D010C949D01E8
:100020000C949D010C949D010C9416060C949D0655
:100030000C949D010C949D010C949D010C949D01C8
:100040000C949D010C949D010C949D010C949D01B8
:100050000C949D010C949D010C949D010C949702AD
:100060000C949D010C949D010C949D010C949D0198
:100070000C949D010C949D010C949D010C949D0188
:100080000C949D010C949D010C949D010C949D0178
:100090000C949D010C949D010C949D010C949D0168
:1000A0000C949D010C949D010C949D010000000096
:1000B000240027002A002D00300000000000250049
:1000C00028002B002E003100000000002300260035
:1000D00029002C002F000404040404030405020278
:1000E00002020403020202020606060606060404D1
:1000F00002020204040802011040804010204080E7
:10010000408008020401804020100201108010206D
:1001100040400000000200080E0000030401000B34
:1001200000000000000000000000000000000000CF
:10013000070605040100080A0B0C0D090403090455
:100140002203410072006400750069006E006F00B8
:1001500020004C0065006F006E00610072006400BA
:100160006F001803410072006400750069006E00A2
:100170006F0020004C004C00430012010002000000
:1001800000404123368000010102000112010002FB
:10019000020000404123368000010102000100C13D
:1001A0008081C1080B000202020100090400000165
:1001B00002020000052400100105240101010424AD
:1001C000020605240600010705810310004009040A
:1001D0000100020A000000070502024000000705B6
:1001E000830240000005010902A1010901A1008567
:1001F00001050919012903150025019503750181E0
:100200000295017505810305010930093109381589
:1002100081257F750895038106C0C005010906A1E7
:10022000018502050719E029E715002501750195EB
:10023000088102950175088103950675081500254A
:10024000650507190029658100C009040200010342
:100250000000000921010100012265000705840357
:1002600040000100000000000000002A2B280000D0
:10027000000000000000000000000000000000007E
:100280000000002C9EB4A0A1A2A434A6A7A5AE365F
:100290002D3738271E1F20212223242526B333B6CD
:1002A0002EB7B89F8485868788898A8B8C8D8E8FA0
:1002B000909192939495969798999A9B9C9D2F31A3
:1002C00030A3AD350405060708090A0B0C0D0E0F07
:1002D000101112131415161718191A1B1C1DAFB183
:1002E000B0B5000052053008350911241FBECFEF0C
:1002F000DAE0DEBFCDBF11E0A0E0B1E0E0EEF4E176
:1003000002C005900D92AE32B107D9F711E0AEE20E
:10031000B1E001C01D92AD3AB107E1F712E0CAEEBB
:10032000D2E004C02297FE010E946A0AC43ED107AF
:10033000C9F70E948C040C946E0A0C940000809102
:10034000360190913701009739F488E060E00E940F
:10035000290489E061E009C08130910559F488E001
:1003600061E00E94290489E060E00E9429048AE09B
:1003700061E00DC08230910569F488E061E00E947F
:10038000290489E060E00E9429048AE060E00E947C
:1003900029040895039761F488E061E00E9429042C
:1003A00089E061E00E9429048AE060E00E9429045B
:1003B00008950E94DF022091380130913901409167
:1003C0003A0150913B016217730784079507B0F01B
:1003D00080913601909137018130910539F483E0A5
:1003E00090E0909337018093360106C0029721F484
:1003F00010923701109236010E949F01089580915A
:10040000360190913701009719F481E090E005C022
:100410008130910539F483E090E090933701809327
:1004200036010CC08330910519F482E090E0F5CFDD
:10043000029721F410923701109236010E949F0119
:100440000895CF93DF9382E00E945C04EC018091D9
:10045000300190913101C817D90751F00E94DF0295
:10046000609332017093330180933401909335018E
:100470000E94DF022091320130913301409134011A
:1004800050913501621B730B840B950B2091000179
:100490003091010140910201509103012617370765
:1004A00048075907F0F480912E0190912F01C81749
:1004B000D907B9F0D0932F01C0932E01C130D105D7
:1004C00081F40E94FF010E94DF0268517C4F8F4F30
:1004D0009F4F609338017093390180933A01909354
:1004E0003B01D0933101C09330010E94D9016AE0F1
:1004F00070E080E090E00E94ED02DF91CF910895DE
:1005000088E061E00E949C0389E061E00E949C0316
:100510008AE061E00E949C0382E060E00E949C030C
:1005200010923701109236010E949F0108951F9288
:100530000F920FB60F9211242F933F938F939F9397
:10054000AF93BF938091400190914101A0914201EE
:10055000B0914301309144010196A11DB11D232F9B
:100560002D5F2D3720F02D570196A11DB11D209331
:1005700044018093400190934101A0934201B093C4
:10058000430180913C0190913D01A0913E01B091C9
:100590003F010196A11DB11D80933C0190933D0147
:1005A000A0933E01B0933F01BF91AF919F918F9176
:1005B0003F912F910F900FBE0F901F9018958FB7FE
:1005C000F8942091400130914101409142015091B5
:1005D00043018FBFB901CA0108959B01AC017FB7E8
:1005E000F89480913C0190913D01A0913E01B09121
:1005F0003F0166B5A89B05C06F3F19F00196A11D8C
:10060000B11D7FBFBA2FA92F982F8827860F911D64
:10061000A11DB11D62E0880F991FAA1FBB1F6A951B
:10062000D1F7BC012DC0FFB7F89480913C019091A7
:100630003D01A0913E01B0913F01E6B5A89B05C0E8
:10064000EF3F19F00196A11DB11DFFBFBA2FA92FD1
:10065000982F88278E0F911DA11DB11DE2E0880FF4
:10066000991FAA1FBB1FEA95D1F7861B970B885EBF
:100670009340C8F2215030404040504068517C4F78
:10068000211531054105510571F60895789484B519
:10069000826084BD84B5816084BD85B5826085BD7E
:1006A00085B5816085BDEEE6F0E080818160808364
:1006B000E1E8F0E010828081826080838081816047
:1006C0008083E0E8F0E0808181608083E1E9F0E010
:1006D000808182608083808181608083E0E9F0E0B6
:1006E000808181608083E1ECF0E0808184608083A0
:1006F000808182608083808181608083E3ECF0E090
:10070000808181608083E0ECF0E080818260808382
:10071000E2ECF0E0808181608083EAE7F0E08081B4
:100720008460808380818260808380818160808317
:100730008081806880830895CF93DF93482F50E0B5
:10074000CA018C509F4FFC0134914A525F4FFA010D
:100750008491882369F190E0880F991FFC01E4558A
:10076000FF4FA591B491FC01E654FF4FC591D49180
:10077000662351F42FB7F8948C91932F9095892389
:100780008C93888189230BC0623061F42FB7F89471
:100790008C91932F909589238C938881832B8883C8
:1007A0002FBF06C09FB7F8948C91832B8C939FBF6B
:1007B000DF91CF910895883071F1893068F48230EB
:1007C00031F1833020F4813009F042C01DC0833004
:1007D00089F08430E9F512C08B3059F18C3028F45F
:1007E0008930E9F08A30A1F51EC08C3031F18E30AD
:1007F00079F529C0809180008F7703C080918000B7
:100800008F7D80938000089584B58F7702C084B572
:100810008F7D84BD0895809190008F7707C080916F
:1008200090008F7D03C080919000877F809390001F
:1008300008958091C0008F7703C08091C0008F7DA4
:100840008093C00008958091C200877F8093C2008A
:100850000895FF920F931F93F62E482F50E0CA0180
:100860008E5E9E4FFC012491CA018C509F4FFC016B
:1008700014914A525F4FFA0104910023C9F02223D8
:1008800019F0822F0E94DB03E02FF0E0EE0FFF1F34
:10089000E654FF4FA591B4919FB7F894FF2021F43F
:1008A0008C911095812302C08C91812B8C939FBFDA
:1008B0001F910F91FF9008950F931F93482F50E0C1
:1008C000CA018E5E9E4FFC012491CA018C509F4F3D
:1008D000FC0104914A525F4FFA011491112319F45B
:1008E00020E030E015C0222319F0822F0E94DB03A4
:1008F000812F90E0880F991F88539F4FFC01A5918D
:10090000B4918C9120E030E0802311F021E030E0C0
:10091000C9011F910F910895CF93DF930E94460361
:100920008DE491E00E9453050E948002C0E0D0E077
:100930000E9421022097E1F30E940000F9CF282FA6
:10094000809147018823C1F057FF1AC015C028982D
:10095000909346018091F1008193E217F307B9F774
:100960004115510539F08091F200882319F48BE686
:100970008093E800AFBF02C04FEF5FEFCA01089558
:10098000AFB7F89427702093E9008091F200282FE8
:1009900030E0241735070CF4A901FB019B01240F5B
:1009A000311D94E6DACFDF93CF930F92CDB7DEB748
:1009B000BE016F5F7F4F41E050E00E949F040197AE
:1009C00019F02FEF3FEF03C08981282F30E0C901D4
:1009D0000F90CF91DF910895FF920F931F93F82E00
:1009E000142F052F40914A0150914B01212F302F98
:1009F000C901DC01FB016EEF29C0F7FE02C0949132
:100A000001C0908120914801309149012417350798
:100A1000ACF48091E8008570E1F38091E80082FFFA
:100A200003C02FEF3FEF17C09093F100C90101966B
:100A30008F739070892B11F46093E8002F5F3F4F04
:100A40003093490120934801119731961097A9F6E8
:100A5000812F902F9C01C9011F910F91FF90089544
:100A60009C018091E80082FFFCCFF901260F311D27
:100A700003C08091F1008193E217F307D1F7289822
:100A800084E6809346018BEF8093E800CB010895C4
:100A90008093E9008091F200882319F08AE3809323
:100AA000E800089508951092470181E08093D700EF
:100AB00080EA8093D80082E189BD09B400FEFDCFB1
:100AC00061E070E080E090E00E94ED0280E98093B8
:100AD000D8008CE08093E2001092E000559A209AB2
:100AE00008955F926F927F928F929F92AF92BF9282
:100AF000CF92DF92EF92FF920F931F93CF93DF93EA
:100B0000E82E842E752E80914701882371F18B0188
:100B1000242F352FC901EC017AEFF72E67E0962ECE
:100B20009E2050E4552E8E2D90E040E2A42EB12C54
:100B3000A822B9223AE3632E20E4C22ED12CC82287
:100B4000D92258C09FB7F8949092E9008091E800AC
:100B500085FD02C020E004C08091F200252D281BF5
:100B60009FBF222361F4FA9419F42FEF3FEF4DC099
:100B700061E070E080E090E00E94ED023BC0822FD7
:100B800090E0C817D9070CF42C2FC21BD1094FB71E
:100B9000F8949092E900A114B10421F406C01092D7
:100BA000F10021502223D9F719C0E7FC03C0F80156
:100BB000922F10C0C801322F06C0FC010196E491AB
:100BC000E093F10031503323C1F706C08191809347
:100BD000F10091509923D1F7020F111D8091E80087
:100BE00085FF05C0209729F4C114D10411F060924B
:100BF000E8004FBF209709F0A5CF5D9884E6809369
:100C00004501282D372DC9019C01C901DF91CF91E4
:100C10001F910F91FF90EF90DF90CF90BF90AF901A
:100C20009F908F907F906F905F9008951F920F928A
:100C30000FB60F9211242F933F934F935F936F93AF
:100C40007F938F939F93AF93BF93EF93FF93809185
:100C5000E1001092E100982F83FF0FC01092E9008D
:100C600081E08093EB001092EC0082E38093ED0032
:100C70001092470188E08093F00092FF34C083E037
:100C80008093E9008091F200882319F08AE3809331
:100C9000E8008FB7F89492E09093E9009091F20009
:100CA0008FBF992321F082E991E00E94730880911F
:100CB0004501882351F08091450181508093450181
:100CC00080914501882309F45D9A8091460188232B
:100CD00051F08091460181508093460180914601F8
:100CE000882309F4289AFF91EF91BF91AF919F91CA
:100CF0008F917F916F915F914F913F912F910F90C5
:100D00000FBE0F901F9018950F931F93DF93CF93F3
:100D10000F92CDB7DEB719828E010F5F1F4FC8014A
:100D20000E949908C8010E94320A898190E00F90C0
:100D3000CF91DF911F910F9108951F920F920FB6DF
:100D40000F921124EF92FF921F932F933F934F9393
:100D50005F936F937F938F939F93AF93BF93EF9323
:100D6000FF93DF93CF93CDB7DEB76197DEBFCDBFE3
:100D70001092E9008091E80083FF0FC1FE013196D7
:100D80009E01275F3F4F03C08091F1008193E217DE
:100D9000F307D1F7289884E68093460182EF809389
:100DA000E800998197FF05C08091E80080FFFCCFA3
:100DB00003C08EEF8093E800292F30E0C9018076D0
:100DC0009070892B09F0C2C08A81882329F410927F
:100DD000F1001092F100D6C0813009F4D3C0833005
:100DE00009F4D0C0853049F48091E80080FFFCCF41
:100DF0008B8180688093E300C5C0863009F07CC099
:100E00001C81EF80F8841230C1F51092E900109235
:100E100049011092480110924B0110924A010E9420
:100E2000840699E0FE013996DF01292F1D922A954B
:100E3000E9F799871A8791E09E8790E8988B9AEF57
:100E4000998B2091480130914901275F3F4F3C87A2
:100E50002B878D871092E90010924901109248016A
:100E6000F0924B01E0924A0180E0BF0149E050E07E
:100E70000E94EC040E94840685C01092E900109242
:100E8000490110924801F0924B01E0924A0112325E
:100E900041F482E290E00E942A0A892B09F476C08C
:100EA00071C0113079F488E0E816F10419F481E09A
:100EB00080934C0180914C01882309F06BC0EAE7D4
:100EC000F1E013C0133009F061C08B81882319F45D
:100ED000ECE3F1E00AC0823019F4E0E4F1E005C08F
:100EE000813009F053C0E2E6F1E0449180E8BF01AF
:100EF00050E00E94EC0446C0873009F447C08830B7
:100F000021F481E08093F1003DC08930D9F5237050
:100F10003070232BD9F5EFE9F1E091E031E026E3E1
:100F20009093E9003093EB0084918093EC00209340
:100F3000ED009F5F3196953099F78EE78093EA0038
:100F40001092EA008B81809347011CC08F819885A5
:100F50001092E900109249011092480190934B01C0
:100F600080934A018D81882329F4CE0101960E9445
:100F7000A50806C0823051F4CE0101960E94FB08FC
:100F8000882321F08EEF8093E80007C081E28093F0
:100F9000EB0003C0ECE8F1E0A8CF6196DEBFCDBF67
:100FA000CF91DF91FF91EF91BF91AF919F918F9181
:100FB0007F916F915F914F913F912F911F91FF9082
:100FC000EF900F900FBE0F901F90189520918E01FB
:100FD00030918F018091900190919101281B390BE4
:100FE0002F733070C901089520918E0130918F01C7
:100FF00080919001909191012817390719F42FEFF2
:101000003FEF09C0E0919001F0919101E25BFE4F4A
:101010008081282F30E0C901089520918E01309100
:101020008F0180919001909191012817390719F44F
:101030002FEF3FEF13C0E0919001F0919101E25B3F
:10104000FE4F2081809190019091910101968F73C4
:101050009070909391018093900130E0C9010895C0
:10106000109295011092940188EE93E0A0E0B0E018
:101070008093960190939701A0939801B093990162
:1010800082E191E0909393018093920108950F93F0
:101090001F93DF93CF930F92CDB7DEB78C01698397
:1010A00080910B01882369F083E0BE016F5F7F4F61
:1010B00041E050E00E9471051816190614F49C01D5
:1010C00007C081E090E0F8019383828320E030E064
:1010D000C9010F90CF91DF911F910F91089583E087
:1010E0000E9448050895CF93DF9312C082E00E94CA
:1010F000D3042FEF8F3F9207C9F0E0918E01F0915A
:101100008F01E25BFE4F8083D0938F01C0938E01ED
:10111000C0918E01D0918F012196CF73D0708091B4
:10112000900190919101C817D90701F7DF91CF91F4
:101130000895FC0180818E5F808380E863EA71E01E
:1011400042E450E00E94EC040895FC01818190810A
:10115000913A59F4813209F04CC080E064E071E0CA
:1011600047E050E00E94EC0442C0913209F041C0D7
:10117000803239F484E091E067E070E00E9430054D
:1011800036C0823209F035C0828180930B01809194
:10119000040190910501A0910601B0910701805BC7
:1011A0009440A040B04019F580910B0180FD12C021
:1011B00087E797E790930108809300082BE088E188
:1011C00090E00FB6F894A895809360000FBE20932E
:1011D00060000DC088E10FB6F89480936000109213
:1011E00060000FBEA895109201081092000881E0DF
:1011F000089580E00895FC0191818081813A31F465
:10120000913089F080E0933089F40DC0813269F427
:101210009B3021F4828180930C0105C09A3029F41F
:10122000828180930D0181E0089580E00895EF921E
:10123000FF920F931F938C01E62EDC01ED91FC9140
:101240000480F581E02D0995F82ED801ED91FC91EF
:101250000680F781E02DC8016E2D09958F2D90E055
:101260001F910F91FF90EF9008951092A00110929E
:10127000A4011092A30184E291E09093A2018093D3
:10128000A1010895EF92FF920F931F93DF93CF93E5
:101290000F92CDB7DEB789838B017A0184E0BE015E
:1012A0006F5F7F4F41E050E00E94710584E4B80118
:1012B000A7010E9471050F90CF91DF911F910F91AF
:1012C000FF90EF90089582E048E050E00E944209CC
:1012D0000895FC01168217821086118612861386E5
:1012E00014823496BF010E9463090895DC016838B6
:1012F00010F0685829C0E62FF0E067FF13C0E058EF
:10130000F04081E090E002C0880F991FEA95E2F773
:10131000809514962C911497282314962C93149747
:1013200060E012C0ED59FD4F6491662319F420E08E
:1013300030E01DC067FF08C014968C9114978D7F14
:1013400014968C9314976F77FD0190E0662321F03B
:101350008681861709F416829F5F31969630B1F721
:10136000CD011496BD010E94630921E030E0C9015E
:101370000895CF93DF93DC01683810F0685825C0DA
:10138000E62FF0E067FF12C0E058F04081E090E007
:1013900002C0880F991FEA95E2F714962C911497D2
:1013A000282B14962C93149760E00FC0ED59FD4F35
:1013B00064916623D9F167FF08C014968C91149745
:1013C000826014968C9314976F7716968C9116976B
:1013D0008617A9F117968C911797861781F11896A1
:1013E0008C911897861759F119968C911997861731
:1013F00031F11A968C911A97861709F11B968C91E8
:101400001B978617E1F0ED01E0E0F0E09E2F8E8162
:10141000882321F4EA0FFB1F668306C09F5F319685
:101420002196E630F10591F7963049F481E090E09D
:1014300013969C938E93129720E030E007C0CD0165
:101440001496BD010E94630921E030E0C901DF91DB
:10145000CF91089580E865EE71E045E650E00E9486
:10146000EC040895FC0180818F5F808380E86AE44A
:1014700072E049E150E00E94EC040895CF92DF92BF
:10148000EF92FF920F931F93CF93DF937C016B0139
:101490008A01C0E0D0E00FC0D6016D916D01D70187
:1014A000ED91FC910190F081E02DC7010995C80FE5
:1014B000D91F015010400115110571F7CE01DF91C0
:1014C000CF911F910F91FF90EF90DF90CF900895F3
:1014D000EE0FFF1F0590F491E02D0994F894FFCFD3
:1014E0001400000000E10000000000000101000005
:1014F000000047083E0AE6070D08F4076F08730866
:0E1500000000000017093E0AB90976096909C2
:00000001FF
